:1000000045C0000053C0000051C000004FC00000B8
:100010004DC000004BC0000049C0000047C00000B8
:1000200045C0000043C0000041C000003FC00000C8
:100030003DC000003BC0000039C0000037C00000D8
:1000400035C0000033C0000077C000002FC00000A2
:100050002DC000002BC0000029C0000027C00000F8
:1000600025C0000023C0000021C000001FC0000008
:100070001DC000001BC0000019C0000017C0000018
:1000800015C0000013C0000011C0000011241FBEE5
:10009000CFEFD0E1DEBFCDBF21E0A0E0B1E001C0F5
:1000A0001D92AA32B207E1F740D088C0A9CF909341
:1000B000900089B988E18AB986E88093950008950F
:1000C0005F9BFECF8CB108955D9BFECF8CB90895E8
:1000D000CF93DF93EC01109201011092000188810F
:1000E000882381F0F1DF8091000190910101019658
:1000F0009093010180930001FE01E80FF91F8081B8
:100100008111F0CFDF91CF91089566E171E082E037
:1001100091E044D0892B41F086E191E0D9DF66E19E
:1001200071E082E091E043C0089580E88AB9789454
:1001300083E390E0BCDFFFCF1F920F920FB60F92C8
:1001400011240BB60F922F933F934F935F936F93AE
:100150007F938F939F93AF93BF93EF93FF93B0DF02
:10016000E6E1F1E022E231E08193E217F307E1F703
:1001700010922201CADFFF91EF91BF91AF919F9141
:100180008F917F916F915F914F913F912F910F9040
:100190000BBE0F900FBE0F901F901895FB01DC0156
:1001A0008D91019080190110D9F3990B0895FB01ED
:1001B000DC0101900D920020E1F70895F894FFCF43
:00000001FF
